:10000000DDC000001AC10000F4C00000F2C0000012
:10001000F0C00000EEC00000ECC00000EAC000002C
:10002000E8C00000E6C00000E4C00000E2C000003C
:10003000E0C00000DEC00000DCC00000DAC000004C
:1000400032C20000D6C00000D4C00000D2C0000000
:10005000D0C00000CEC00000CCC00000CAC000006C
:10006000C8C00000C6C0000005010902A1010901C5
:10007000A100050919012903150025019503750142
:10008000810295017505810105010930093115814C
:10009000257F750895028106C0C005010906A101EA
:1000A000050719E029E7150025017501950881026A
:1000B0009501750881019505750105081901290546
:1000C0009102950175039101950675081500256546
:1000D0000507190029658100C009023B00020100E3
:1000E000803209040000010301010009210101001F
:1000F00001223F00070581030800190904010001DE
:1001000003010200092101010001223200070583D9
:10011000030800191201100100000008424231E1F9
:100120000001010203012603760030002E00310099
:100130002D00320030003100340031003100300039
:10014000380031003800350030005A001A037400BE
:1001500069006E00790055005300420062006F0094
:100160006100720064005203680074007400700043
:100170003A002F002F006D006100740072006900CA
:100180007800730074006F0072006D002E00630031
:100190006F006D002F006100760072002F00740068
:1001A00069006E00790075007300620062006F00E4
:1001B0006100720064002F000403090411241FBEB3
:1001C000CFEFD4E0DEBFCDBF11E0A0E0B1E0EEE9BB
:1001D000FEE002C005900D92A630B107D9F721E0EC
:1001E000A6E0B1E001C01D92A236B207E1F7A3D2AA
:1001F00054C606CFDC018FEF9FEF332715C02D913A
:100200002827722F22952727822F26952695282783
:1002100023952270321777952795822F8927972F5C
:100220007695279597278227615048F78095909576
:100230000895E0DF8D939D930895CF93CFB7CF932B
:10024000DF93C3954F9BE9F74F9B0BC04F9B09C0B2
:100250004F9B07C04F9B05C04F9B03C04F9B01C0E6
:100260008BC06F93C0913901DD27C05CDE4F2F93A7
:1002700065E54F9B03C02F916F91E6CF0F931F93BE
:100280004F9320E040E15F9309B1047807FB27F921
:100290003F9350E03BE039C0147840642F77012F42
:1002A0005F5F1EC0406819B114782F7752501FC08D
:1002B000406409B12F770478D1F15F5F00C023C09B
:1002C000406219B12F77147891F15F5F00C025C0AB
:1002D00004781027515012F45D5F000011502795EB
:1002E0002C3F19B1C8F614780127015027952C3FEF
:1002F000C8F64227499309B1047810274F7311506B
:1003000027952C3FA8F64695469519B1147879F0B3
:100310000127015027952C3F98F66B5A60F3315016
:1003200009B1B0F600C011E01CBB002719C03B505A
:100330003195C31BD04011E01CBB0881033C09F17F
:100340000B34F9F0209137011981110F1213EDCF01
:100350004A81441F093651F10D3211F0013E29F74F
:1003600000933E013F915F914F911F910F912F910B
:100370006F91CCB3C0FD65CFDF91CF91CFBFCF914F
:10038000189520913E01222369F310913C0111231D
:10039000E9F53430EAF130933C01209338011091B3
:1003A00039013BE0311B3093390132C000913C01EF
:1003B000013064F50AE54F7049F43091040134FDD1
:1003C00028C000930401C0E2D1E027C0433049F0C7
:1003D00030912B0134FD1DC000932B01CCE2D1E004
:1003E0001CC03091560134FD14C000935601C7E57E
:1003F000D1E013C0052710E000C000000BB91AC0FF
:10040000052710E0221F1DC010E021C04AE502C0F0
:1004100032ED432FC4E1D0E032E01AB114685F9AA4
:100420000BB11AB954E820E865E320FF05270BB9A2
:10043000279517951C3FF0F66695B8F7B1F720FFA2
:1004400005270BB9279517951C3FD0F627951795CB
:1004500017FF052700001C3F0BB9B0F629913A950C
:1004600019F70B7710913D01110FC651D0400BB910
:1004700011F01093370111E01CBB00681AB11B7713
:10048000402F4B7754E05A95F1F70BB91AB94BB995
:1004900069CFFB0105900020E9F7609570956E0F1C
:1004A0007F1FCB01089578941F920F920FB60F9281
:1004B00011248F939F9380910C0190910D010196CF
:1004C00090930D0180930C019F918F910F900FBE1F
:1004D0000F901F901895FC0180910C0190910D01D7
:1004E00020910C0130910D0182179307A9F73097E5
:1004F00011F091838083089516BCEEE6F0E08081D0
:100500008160808384E085BD7894089580910B019B
:100510008F3F19F08F5F80930B01089581E28093E4
:100520000A0110920901289A299A5D9A5B9A089506
:1005300085B191E0892785B985B192E0892785B990
:100540008BB190E289278BB98BB198E089278BB961
:1005500008958091120190910801981729F0DEDF2B
:1005600080911201809308010895811103C05D9864
:10057000289A0FC0813019F42898299A0AC082302D
:1005800019F429985B9A05C0833029F45B985D9A29
:1005900002C08F5F089580E00895811103C05D9AC5
:1005A00028980FC0813019F4289A29980AC08230FF
:1005B00019F4299A5B9805C0833029F45B9A5D98F9
:1005C00002C08F5F089580E008950F931F93CF932B
:1005D000DF9300D01F92CDB7DEB7009106011091D6
:1005E0000701CE01019677DF801B910B18161906C3
:1005F0006CF48F3F910511F00CF08FEF8B838981A4
:100600009A81909307018093060101C01B82CE015D
:100610000396B2D10F900F900F90DF91CF911F9161
:100620000F910895BF92CF92DF92EF92FF920F93B6
:100630001F93CF93DF9300D000D000D0CDB7DEB7AB
:1006400080E09FE0A0E0B12D8B839C83AD83BE83CF
:10065000BC01CD011EDF6C01CC0CDD1C4E9902C02B
:10066000B4DFFCCFCE01019636DF7C01B12C00E077
:1006700010E00C151D0508F04EC0A7DFCE01019655
:100680002ADF8E199F090597C4F380911F018111FC
:100690002CC0C80123E0969587952A95E1F78370D1
:1006A0007CDF84E191E017D100FF07C080911F013A
:1006B000826080931F01B12C14C0F801F695E79574
:1006C000AB81BC81EA0FFB1F849164E171E00ED223
:1006D000882339F080911F01826080931F01BB2421
:1006E000B394E980FA800F5F1F4F4E99C2CF4E99A5
:1006F00002C06BDFFCCFBB2071F080911F0188230B
:1007000011F063DFFACF84E191E0E5D080911F0121
:10071000826080931F0126960FB6F894DEBF0FBE4D
:10072000CDBFDF91CF911F910F91FF90EF90DF90A0
:10073000CF90BF900895CF93DF9300D0CDB7DEB7B1
:10074000F4B614BE88E10FB6F8948093600010925E
:1007500060000FBEF3D08091120180930801579A78
:10076000CBDE56985E9A209A219A559A539A80E049
:1007700090E0B1DE8C019093070180930601F3FCB9
:1007800092C0F12CE12CCE010196A5DE801B910BCD
:100790000F9734F08F2DE9DEF82E09811A81E3944A
:1007A0004FE04E1580F7579860D380910B0187304A
:1007B00070F4CE0101968FDE801B910B0F972CF009
:1007C0008F2DD3DEF82E09811A81FFDEEECFA6DE53
:1007D000F12CCE0101967FDE44E0F49E90011124BD
:1007E000275F3F4F801B910B2817390724F4A0DEA9
:1007F00009811A81F394E9DE4E9904C08FDE12DF7D
:100800008DDE03C087E08F1520F788DE1092090186
:1008100080910901843008F043C081E280930A018D
:10082000F0900A01FF20B1F1CE01019654DE2F2D88
:1008300030E02F5F3F4F220F331F801B910B281793
:1008400039070CF580910901811105C085B192E04D
:10085000892785B911C0813021F495B1982795B9C0
:100860000BC0823019F48BB190E204C0833021F4C4
:100870008BB198E089278BB909811A8180910A018F
:10088000815080930A01A1DE4E99CACF47DECADEAD
:1008900045DEC6CF809109018F5F80930901B8CFF3
:1008A000579A5B9A7ED1A89539DE29985D98A895CC
:1008B000CE01019610DE801B910B8D379105BCF3A4
:1008C00037DE09811A81F3CF70E046E050E00296EE
:1008D000DDC260E0F9CFFC0110821182FACFFC0189
:1008E0001082118212820895FC018381813271F499
:1008F00084819581019719F484E091E002C08BEE28
:1009000090E090933B0180933A0116C08232A1F4AB
:1009100084819581019741F488E690E090933B01B2
:1009200080933A0182E308958AE990E090933B0135
:1009300080933A018FE3089580E00895CF9384E196
:1009400091E0C9DF10921F01C1E0C09302018DE761
:1009500080930101109210018FEF809312018CE1BE
:1009600091E0BDDF10921301C093000110920F01BE
:1009700010920E01CF910895CF93FC01C08154D104
:1009800090910101992371F0809110018C0F809357
:100990001001891738F01092100180911F018068B2
:1009A00080931F0190910F01992371F080910E01A6
:1009B0008C0F80930E01891738F010920E018091F0
:1009C000130180688093130180911F01882351F0E7
:1009D00080912B0184FF06C068E084E191E01ED184
:1009E00010921F0180911301882351F080915601CC
:1009F00084FF06C063E08CE191E013D110921301F3
:100A0000CF9112C180E00895FC0180818076803210
:100A100009F05BC081818330F1F128F4813061F00D
:100A2000823021F152C08A3059F18B3009F442C032
:100A3000893009F04AC00DC084819581F0933B0153
:100A4000E0933A0111821082019709F040C083E0DF
:100A50000895848195810197E1F181E026813781B4
:100A60002130310509F080E08195089584819581D8
:100A7000019719F48FE091E017C081E091E014C074
:100A8000848195812381019719F420930F0121C05E
:100A9000209301011EC084819581019719F480E0A3
:100AA00091E002C082E091E090933B0180933A0193
:100AB00081E00895848195812281019719F4209322
:100AC000000107C02093020104C0CF019BCF88E042
:100AD000089580E00895FC018081909112018917AA
:100AE00019F08093120135DD81E00895FB01803219
:100AF00011F48CE251C08A3011F488E24DC0893083
:100B000011F48BE249C08A3721F08A3521F482E062
:100B100080838CE141C0893721F0893521F482E05E
:100B200080838DE139C09FE9980F9A3110F48D557B
:100B300033C09FEB980F9A3120F492E090838D534D
:100B40002BC09FEC980F993010F4835125C080334F
:100B500011F487E221C0803419F4808384E11CC041
:100B60008A3319F482E0808316C08C3211F486E354
:100B700013C08F3211F484E50FC08A3211F485E579
:100B80000BC08B3211F487E507C08D3211F486E576
:100B900003C08E3221F487E3828381E0089580E0F0
:100BA000089528E088E190E00FB6F894A895809326
:100BB00060000FBE20936000A895F894D4E0CEEFBB
:100BC0002CE1299320E0299314BEFFCF8FEF0895E5
:100BD0001F93CF93DF93382F792F162FEA01888147
:100BE00084FF05C0298188E82827298302C08AE577
:100BF0008883432FCE010296DC01E32FF72F21914A
:100C00002D93212F240F2E1B1216CCF3612F11DBF5
:100C10001C5F1883DF91CF911F9108954BE251E043
:100C2000D7CF46E551E0D4CF0F931F93CF93DF93F7
:100C30001F92CDB7DEB760913C01635067FDC1C024
:100C4000809139010CE010E0081B1109005C1E4F77
:100C500069835CDC8091380169818D3209F0A0C024
:100C6000683009F0ACC083EC809320018AE5809362
:100C7000040110921101F8018081807619F0C801F9
:100C8000C3DE7AC0F801928110922901818181111D
:100C900006C010922A0129E231E082E069C0853065
:100CA00019F490933D0161C0863009F046C0F80107
:100CB0008381813041F484E191E090933B01809302
:100CC0003A0182E136C0823041F489ED90E09093A0
:100CD0003B0180933A018BE32CC0833041F59111A5
:100CE00008C088EB91E090933B0180933A0184E047
:100CF00020C0913041F486E691E090933B018093CF
:100D00003A0182E516C0923041F48CE491E0909370
:100D10003B0180933A018AE10CC0933041F486E2B2
:100D200091E090933B0180933A0186E202C0C801B2
:100D3000DBDD90E4909311011FC0883079F0893099
:100D400019F490933F0111C08A3059F08B3069F447
:100D50008BE480932C018093570107C02FE331E08F
:100D600002C029E231E081E003C029E231E080E005
:100D700030933B0120933A01F8018F3F39F4908181
:100D800097FD868190E89093110107C0978191119A
:100D900004C09681981708F4892F809303010FC02F
:100DA0008091110187FF0BC0C80195DE8F3F21F4B0
:100DB0008EE18093040103C081111092030110920F
:100DC0003C018091040184FF40C0809103018F3F6A
:100DD00009F43BC0182F893008F018E0811B80937C
:100DE00003018091200198E8892780932001112335
:100DF00001F1E0913A01F0913B018091110186FFF0
:100E00000BC081E291E0DC0124912D933196212FDA
:100E1000280F2A13F9CF09C081E291E0DC0121916A
:100E20002D93212F280F2A13FACFF0933B01E09343
:100E30003A01612F81E291E0FCD91C5F1C3019F06E
:100E40008FEF809303011093040184E199B19478AA
:100E500031F48150D9F710923D01109237010F9073
:100E6000DF91CF911F910F910895E9E6F0E0808125
:100E700082608083E89A8BE480932C0180935701F1
:100E80008AE580932B01809356010895DC0101C00F
:100E90006D9341505040E0F70895F894FFCF017DE5
:100EA00001FF5A00000000000000000000000000E8
:100EB0000000000000000000000000000000000032
:100EC0000000000000000000000000000000000022
:100ED0000000000000000000000000000000000012
:100EE0000000000000000000000000000000000002
:100EF00000000000000000000000000000000000F2
:100F00000A74696E79555342626F617264206D692B
:100F1000742041546D6567613136382C2053656CFF
:100F200062737474657374202D2064696520555351
:100F300042205363686E6974747374656C6C6520C9
:100F400066756E6B74696F6E696572740A68747425
:100F5000703A2F2F6D617472697873746F726D2E91
:100F6000636F6D2F6176722F74696E79757362622B
:100F70006F6172642F0A0A4E6163682041626C617E
:100F800075662064657320436F756E74646F776E49
:100F90007320737461727465742064657220426F8B
:100FA0006F746C6F6164657220756E642064617328
:100FB00020426F617264206B616E6E2070726F6789
:100FC00072616D6D696572742077657264656E2EED
:100FD0000A0A0A426974746520626561636874650F
:100FE0006E205369652064696520494E4B4F4D5012
:100FF00041544942494C495441455420646572204A
:101000006E6F726D616C656E2041546D65676138FD
:101010002074696E79555342626F6172640A666921
:10102000726D77617265732E20416C6C652042652C
:1010300069737069656C65206D75657373656E2085
:10104000667565722041546D6567613136382C20B4
:1010500031364D487A2075656265727365747A74AD
:10106000207365696E2E0A0A0A0A42656920416E7C
:101070006D65726B756E67656E2C20467261676573
:101080006E206F6465722050726F626C656D656E64
:101090002077656E64656E205369652073696368A7
:1010A00020626974746520616E2053746570686194
:1010B0006E2042616572776F6C660A737465706842
:1010C000616E406D617472697873746F726D2E63B6
:1010D0006F6D2C206D617472697873746F726D40DE
:1010E000676D782E64652C207374657068616E2E50
:1010F00062616572776F6C664074752D696C6D65A1
:101100006E61752E64650A0A5047502D4B6579490A
:1011100044093A20307846423942313244420A4644
:10112000696E6765727072696E74093A2032323581
:10113000322042343145203132444620343141445A
:101140002034373646203746333620303834412075
:1011500030393131204642394220313244420A008E
:1038000084C00000C3C00000A7C00000A5C0000025
:10381000A3C00000A1C000009FC000009DC0000028
:103820009BC0000099C0000097C0000095C0000038
:1038300093C0000091C000008FC000008DC0000048
:103840008BC0000089C0000087C0000085C0000058
:1038500083C0000081C000007FC000007DC0000068
:103860007BC0000079C000007E3FF9F76A39F9F7A4
:103870005635F9F74338F9F7EC2DFD2DB7B6B0FC06
:10388000FDCF27BFE895B7B6B0FCFDCF21E1B7B6B5
:10389000B6FCF4CF08955553422076302E39372E9A
:1038A000312C206279205374657068616E2042610A
:1038B0006572776F6C6600000902120001010080DA
:1038C0003209040000000000000012011001FF0096
:1038D0000008C016DC050201010200010E035500BC
:1038E000530042006100730070001C0377007700F2
:1038F00077002E00660069007300630068006C00AA
:103900002E00640065000403090411241FBECFEFDC
:10391000D4E0DEBFCDBF24B7D4E0CEEF39913C3147
:10392000399109F03FEF30933D0120933C0111E0C4
:10393000A0E0B1E0EAEFFFE302C005900D92A630EF
:10394000B107D9F721E0A6E0B1E001C01D92AC3388
:10395000B207E1F749D14FC353CFA82FB92F80E069
:1039600090E041E050EA609530E009C02D91822757
:103970009795879510F084279527305EC8F36F5F81
:10398000A8F30895EADF8D939D930895CF93CFB761
:10399000CF93DF93C3954F9BE9F74F9B0BC04F9B92
:1039A00009C04F9B07C04F9B05C04F9B03C04F9B57
:1039B00001C089C06F93C0911F01DD27CA5DDE4F32
:1039C0002F9365E54F9B03C02F916F91E6CF0F9327
:1039D0001F934F9320E040E15F9309B1047807FB08
:1039E00027F93F9350E03BE039C0147840642F77CB
:1039F000012F5F5F1EC0406819B114782F775250B5
:103A00001FC0406409B12F770478D1F15F5F00C017
:103A100023C0406219B12F77147891F15F5F00C025
:103A200025C004781027515012F45D5F000011503A
:103A300027952C3F19B1C8F6147801270150279516
:103A40002C3FC8F64227499309B1047810274F73D9
:103A5000115027952C3FA8F64695469519B1147834
:103A600079F00127015027952C3F98F66B5A60F3A7
:103A7000315009B1B0F600C011E01CBB002717C0DF
:103A80003B503195C31BD04011E01CBB0881033C67
:103A9000F9F00B34E9F020911D011981110F121377
:103AA000EDCF093651F10D3211F0013E39F7009397
:103AB00024013F915F914F911F910F912F916F9131
:103AC000CCB3C0FD67CFDF91CF91CFBFCF91189519
:103AD00020912401222369F310912201112339F549
:103AE00034303AF13093220120931E0110911F01CE
:103AF0003BE0311B30931F011CC0009122010130BB
:103B0000B4F40AE53091010134FD14C000930101C1
:103B1000C2E1D1E013C0052710E000C000000BB9DE
:103B20001AC0052710E0221F1DC010E021C04AE581
:103B300002C032ED432FC4E1D0E032E01AB1146884
:103B40005F9A0BB11AB954E820E865E320FF052716
:103B50000BB9279517951C3FF0F66695B8F7B1F7A6
:103B600020FF05270BB9279517951C3FD0F6279501
:103B7000179517FF052700001C3F0BB9B0F62991D8
:103B80003A9519F70B7710912301110FC651D040C8
:103B90000BB911F010931D0111E01CBB00681AB1A4
:103BA0001B77402F4B7754E05A95F1F70BB91AB9B0
:103BB0004BB97FCFFC01938184812281203339F47A
:103BC0008370E82FF0E0EE5FFE4F80810895203A89
:103BD00009F4FBC1203C19F46581FFD103C02F3FDC
:103BE00009F411EF80E008951AB880E48BB981E000
:103BF00085BF82E085BF83E0A89531978040E1F7DB
:103C000080913C01877F21F480913D01882381F0E0
:103C10004E9B0EC0F894579A1BB81DBA10926900BB
:103C200081E085BF15BEE0910A01F0910B01099575
:103C30001EEF14BE88E10FB6F894809360001092D6
:103C400060000FBE80916900826080936900E89AED
:103C5000579A8DE0A89531978040E1F7579878946E
:103C600000912201035007FD2BC180911F01CCE080
:103C7000D0E0C81BD109CA5DDE4F80911E018D3294
:103C800009F0B5C0083009F019C183EC8093120126
:103C90008AE580930101109211014881842F80767A
:103CA0003981882399F186E091E0909321018093F6
:103CB0002001333031F4CE017DDF8093090124E00F
:103CC0008CC03530F9F03A30E9F08CEF830F863054
:103CD00098F48A819B819093100180930F01393071
:103CE00099F08E8180930E018D81827080930D01F9
:103CF00030930C012FEF6BC0323011F41E7F04C0E3
:103D0000116002C021E069C020E067C08A81109282
:103D10001B01311106C010921C018BE191E022E0E1
:103D200050C0353019F4809323013DC03630A9F5D9
:103D30009B81913019F48AEC98E304C0923041F4ED
:103D400088EB98E3909321018093200122E121C028
:103D50009330F1F4811108C086E099E3909321013A
:103D60008093200124E015C0813041F48AEE98E36D
:103D700090932101809320012CE10BC0823041F40B
:103D80008CED98E390932101809320012EE001C0F7
:103D900020E080E48093110118C0383079F0393088
:103DA00031F4809325018BE191E020E00AC021E00D
:103DB0003A3009F020E08BE191E003C085E291E028
:103DC00021E090932101809320012F3F31F447FDA2
:103DD0002E8180E88093110107C08F81811104C07A
:103DE0008E81821708F4282F2093000167C08091EC
:103DF000110187FF63C080910E01801708F4082F1E
:103E0000801B80930E01DD24D3948111D12C8091ED
:103E10000C018730C0F0CC2EEC2EFD2E8E2D8C198F
:103E2000801708F048C0D7016D917D0180910F0186
:103E3000909110019C012F5F3F4F30931001209310
:103E40000F01CBD0EBCF80910D01E0910F01F091EC
:103E50001001DE0100FD0395025048F1F83338F5FA
:103E600022D0F8940D901D9021E017D02E2F2E5FB8
:103E70002F7731F0DD2079F0882369F0003059F494
:103E800023E00BD010D025E008D00DD007B606FEF9
:103E900002C021E102D03296DFCFF89427BFE89527
:103EA00011247894089507B600FCFDCF0895F0938F
:103EB0001001E0930F01D110109200011092220125
:103EC0008091010184FF6BC0809100018F3F09F454
:103ED00066C0082F893008F008E0801B809300013D
:103EE0008091120198E8892780931201002309F438
:103EF0004AC08091110187FF28C080910E01801770
:103F000008F4082F801B80930E01D0900C01C3E1B0
:103F1000D1E083E191E02C2F281B2017A0F5E09041
:103F20000F01F0901001B6E0BD1518F4C7014DD097
:103F300002C0F701849188832196FFEFEF1AFF0AF0
:103F4000F0921001E0920F01E4CFE0912001F09196
:103F5000210186FF0BC083E191E0DC0124912D93C8
:103F60003196202F280F2A13F9CF09C083E191E061
:103F7000DC0121912D93202F280F2A13FACFF093E3
:103F80002101E0932001602F83E191E0FBDC0C5FD5
:103F90000C3019F08FEF809300010093010184E150
:103FA00099B1947831F48150D9F71092230110928D
:103FB0001D01103118F04E99105104C0123010F04C
:103FC0004E9B125011114CCE25CEF999FECF92BDC9
:103FD00081BDF89A992780B50895262FF999FECFCB
:103FE0001FBA92BD81BD20BD0FB6F894FA9AF99A16
:103FF0000FBE01960895F894FFCFFF5A1E94060055
:00000001FF
