:10000000BCC0FAC0D5C0D4C0D3C0D2C0D1C0D0C04B
:10001000CFC028C2CDC0CCC0CBC0CAC0C9C0C8C028
:10002000C7C0C6C0C5C005010902A1010901A100E0
:1000300005091901290315002501950375018102A0
:100040009501750581010501093009311581257F6B
:10005000750895028106C0C005010906A1010507C2
:1000600019E029E715002501750195088102950120
:100070007508810195057501050819012905910289
:10008000950175039101950675081500256505070D
:10009000190029658100C009023B0002010080327D
:1000A00009040000010301010009210101000122EE
:1000B0003F0007058103080019090401000103013D
:1000C0000200092101010001223200070583030813
:1000D00000191201100100000008424231E1000144
:1000E000010203012603760030002E0031002D00AE
:1000F000320030003100340031003100300038006F
:1001000031003800350030005A001A0374006900CD
:100110006E00790055005300420062006F006100DC
:1001200072006400520368007400740070003A00AA
:100130002F002F006D0061007400720069007800CC
:10014000730074006F0072006D002E0063006F007A
:100150006D002F006100760072002F0074006900AE
:100160006E00790075007300620062006F0061002C
:10017000720064002F000403090411241FBECFE5A0
:10018000D4E0DEBFCDBF10E0A0E6B0E0EEE4FEE0DC
:1001900002C005900D92A636B107D9F720E0A6E679
:1001A000B0E001C01D92A23CB207E1F7A1D24DC65A
:1001B00027CFDC018FEF9FEF332715C02D91282724
:1001C000722F22952727822F26952695282723955B
:1001D0002270321777952795822F8927972F76954A
:1001E000279597278227615048F780959095089525
:1001F000E0DF8D939D930895CF93CFB7CF93DF9397
:10020000C395879BE9F7879B0BC0879B09C0879B9A
:1002100007C0879B05C0879B03C0879B01C08BC01D
:100220006F93C0919900DD27C056DF4F2F9365E58E
:10023000879B03C02F916F91E6CF0F931F934F932E
:1002400020E040E15F9300B3047807FB27F93F9378
:1002500050E03BE039C0147840642F77012F5F5F96
:100260001EC0406810B314782F7752501FC04064EE
:1002700000B32F770478D1F15F5F00C023C04062E4
:1002800010B32F77147891F15F5F00C025C0047818
:100290001027515012F45D5F0000115027952C3F3C
:1002A00010B3C8F614780127015027952C3FC8F6E3
:1002B0004227499300B3047810274F7311502795B4
:1002C0002C3FA8F64695469510B3147879F001278F
:1002D000015027952C3F98F66B5A60F3315000B3CC
:1002E000B0F600C010E41ABF002719C03B5031958A
:1002F000C31BD04010E41ABF0881033C09F10B3442
:10030000F9F0209197001981110F1213EDCF4A8156
:10031000441F093651F10D3211F0013E29F70093C7
:100320009E003F915F914F911F910F912F916F917F
:10033000CAB7C6FD65CFDF91CF91CFBFCF911895DA
:1003400020919E00222369F310919C001123E9F56E
:100350003430EAF130939C0020939800109199007A
:100360003BE0311B3093990032C000919C0001307A
:1003700064F50AE54F7049F43091640034FD28C0FB
:1003800000936400C0E8D0E027C0433049F03091CA
:100390008B0034FD1DC000938B00CCE8D0E01CC066
:1003A0003091B60034FD14C00093B600C7EBD0E026
:1003B00013C0052710E000C0000002BB1AC00527CB
:1003C00010E0221F1DC010E021C04AE502C032ED3E
:1003D000432FC4E1D0E032E011B31468979A02B31E
:1003E00011BB54E820E865E320FF052702BB2795F1
:1003F00017951C3FF0F66695B8F7B1F720FF052773
:1004000002BB279517951C3FD0F62795179517FF28
:10041000052700001C3F02BBB0F629913A9519F759
:100420000B7710919D00110FC651D04002BB11F007
:100430001093970010E41ABF006811B31B77402F88
:100440004B7754E05A95F1F702BB11BB42BB69CF21
:10045000FB0105900020E9F7609570956E0F7F1FF6
:10046000CB01089578941F920F920FB60F9211242A
:100470008F939F9380916C0090916D000196909363
:100480006D0080936C009F918F910F900FBE0F9025
:100490001F901895FC0180916C0090916D00209147
:1004A0006C0030916D0082179307A9F7309711F017
:1004B00091838083089512BE89B7816089BF84E0EB
:1004C00083BF7894089580916B008F3F19F08F5F00
:1004D00080936B00089581E280936A001092690016
:1004E000C09AC19A959A939A089588B391E0892702
:1004F00088BB88B392E0892788BB82B390E28927C2
:1005000082BB82B398E0892782BB089580917200F4
:1005100090916800981729F0DEDF80917200809337
:1005200068000895811103C09598C09A0FC081306A
:1005300019F4C098C19A0AC0823019F4C198939AEC
:1005400005C0833029F49398959A02C08F5F08956F
:1005500080E00895811103C0959AC0980FC0813042
:1005600019F4C09AC1980AC0823019F4C19A9398BC
:1005700005C0833029F4939A959802C08F5F08953F
:1005800080E008950F931F93CF93DF9300D01F92C5
:10059000CDB7DEB70091660010916700CE010196DD
:1005A00079DF801B910B181619066CF48F3F9105AB
:1005B00011F00CF08FEF8B8389819A819093670003
:1005C0008093660001C01B82CE010396B0D10F90CC
:1005D0000F900F90DF91CF911F910F910895BF92CF
:1005E000CF92DF92EF92FF920F931F93CF93DF93FF
:1005F00000D000D000D0CDB7DEB780E89EE0A0E00C
:10060000B12D8B839C83AD83BE83BC01CD0120DFE4
:100610006C01CC0CDD1C869902C0B4DFFCCFCE018E
:10062000019638DF7C01B12C00E010E00C151D05AF
:1006300008F04EC0A7DFCE0101962CDF8E199F096E
:100640000597C4F380917F0081112CC0C80123E07D
:10065000969587952A95E1F783707CDF84E790E093
:1006600015D100FF07C080917F00826080937F00DA
:10067000B12C14C0F801F695E795AB81BC81EA0F67
:10068000FB1F849164E770E00CD2882339F08091DD
:100690007F00826080937F00BB24B394E980FA805E
:1006A0000F5F1F4F8699C2CF869902C06BDFFCCFC8
:1006B000BB2071F080917F00882311F063DFFACFB7
:1006C00084E790E0E3D080917F00826080937F0098
:1006D00026960FB6F894DEBF0FBECDBFDF91CF9147
:1006E0001F910F91FF90EF90DF90CF90BF900895F2
:1006F000CF93DF9300D0CDB7DEB7F4B614BE88E158
:100700000FB6F89481BD11BC0FBEF3D0809172007A
:10071000809368008F9ACFDE8E98969AB89AB99A8D
:100720008D9A8B9A80E090E0B5DE8C019093670003
:1007300080936600F3FC92C0F12CE12CCE0101966F
:10074000A9DE801B910B0F9734F08F2DEBDEF82E76
:1007500009811A81E3944FE04E1580F78F985DD39D
:1007600080916B00873070F4CE01019693DE801B80
:10077000910B0F972CF08F2DD5DEF82E09811A8161
:1007800001DFEECFA8DEF12CCE01019683DE44E03E
:10079000F49E90011124275F3F4F801B910B281777
:1007A000390724F4A2DE09811A81F394EBDE8699DD
:1007B00004C091DE14DF8FDE03C087E08F1520F7C1
:1007C0008ADE1092690080916900843008F043C08D
:1007D00081E280936A00F0906A00FF20B1F1CE01BF
:1007E000019658DE2F2D30E02F5F3F4F220F331F31
:1007F000801B910B281739070CF580916900811136
:1008000005C088B392E0892788BB11C0813021F4EC
:1008100098B3982798BB0BC0823019F482B390E24A
:1008200004C0833021F482B398E0892782BB098118
:100830001A8180916A00815080936A00A3DE8699B4
:10084000CACF49DECCDE47DEC6CF809169008F5F1C
:1008500080936900B8CF8F9A939A7ED1A8953BDE9A
:10086000C1989598A895CE01019614DE801B910B36
:100870008D379105BCF339DE09811A81F3CF70E021
:1008800046E050E00296DAC260E0F9CFFC01108247
:100890001182FACFFC011082118212820895FC01AC
:1008A0008381813271F484819581019719F482ECFE
:1008B00090E002C089EA90E090939B0080939A00B8
:1008C00016C08232A1F484819581019741F486E2B9
:1008D00090E090939B0080939A0082E3089588E5CE
:1008E00090E090939B0080939A008FE3089580E0BE
:1008F0000895CF9384E790E0C9DF10927F00C1E0B4
:10090000C09362008DE780936100109270008FEFBA
:10091000809372008CE790E0BDDF10927300C0936B
:10092000600010926F0010926E00CF910895CF93E7
:10093000FC01C08152D190916100992371F08091A6
:1009400070008C0F80937000891738F0109270003F
:1009500080917F00806880937F0090916F00992341
:1009600071F080916E008C0F80936E00891738F0C3
:1009700010926E0080917300806880937300809164
:100980007F00882351F080918B0084FF06C068E0CF
:1009900084E790E01CD110927F008091730088233F
:1009A00051F08091B60084FF06C063E08CE790E0D0
:1009B00011D110927300CF9110C180E00895FC0115
:1009C00080818076803209F05BC081818330F1F1D3
:1009D00028F4813061F0823021F152C08A3059F11F
:1009E0008B3009F442C0893009F04AC00DC08481BF
:1009F0009581F0939B00E0939A00118210820197F9
:100A000009F040C083E00895848195810197E1F168
:100A100081E0268137812130310509F080E0819520
:100A2000089584819581019719F48FE690E017C0AD
:100A300081E690E014C0848195812381019719F4A7
:100A400020936F0021C0209361001EC08481958196
:100A5000019719F480E690E002C082E690E090935E
:100A60009B0080939A0081E0089584819581228182
:100A7000019719F42093600007C02093620004C01E
:100A8000CF019BCF88E0089580E00895FC0180812C
:100A900090917200891719F08093720037DD81E020
:100AA0000895FB01803211F48CE251C08A3011F4B8
:100AB00088E24DC0893011F48BE249C08A3721F0B9
:100AC0008A3521F482E080838CE141C0893721F0AE
:100AD000893521F482E080838DE139C09FE9980F48
:100AE0009A3110F48D5533C09FEB980F9A3120F452
:100AF00092E090838D532BC09FEC980F993010F4A7
:100B0000835125C0803311F487E221C0803419F469
:100B1000808384E11CC08A3319F482E0808316C08C
:100B20008C3211F486E313C08F3211F484E50FC0C8
:100B30008A3211F485E50BC08B3211F487E507C0CA
:100B40008D3211F486E503C08E3221F487E382836F
:100B500081E0089580E0089528E088E190E00FB6F4
:100B6000F894A89581BD0FBE21BDA895F894D4E056
:100B7000CEE52CE0299320E0299314BEFFCF8FEF20
:100B800008951F93CF93DF93382F792F162FEA0103
:100B9000888184FF05C0298188E82827298302C02D
:100BA0008AE58883432FCE010296DC01E32FF72FDD
:100BB00021912D93212F240F2E1B1216CCF3612F80
:100BC00017DB1C5F1883DF91CF911F9108954BE8CD
:100BD00050E0D7CF46EB50E0D4CF0F931F93CF9385
:100BE000DF931F92CDB7DEB760919C00635067FD25
:100BF000C1C0809199000CE010E0081B110900565B
:100C00001F4F698360DC8091980069818D3209F003
:100C1000A0C0683009F0ACC083EC809380008AE506
:100C20008093640010927100F8018081807619F041
:100C3000C801C5DE7AC0F8019281109289008181D5
:100C4000811106C010928A0029E830E082E069C074
:100C5000853019F490939D0061C0863009F046C03C
:100C6000F8018381813041F482ED90E090939B0004
:100C700080939A0082E136C0823041F487E990E0A7
:100C800090939B0080939A008BE32CC0833041F5B6
:100C9000911108C086E791E090939B0080939A00A1
:100CA00084E020C0913041F484E291E090939B0075
:100CB00080939A0082E516C0923041F48AE091E078
:100CC00090939B0080939A008AE10CC0933041F48A
:100CD00084EE90E090939B0080939A0086E202C09D
:100CE000C801DDDD90E4909371001FC0883079F079
:100CF000893019F490939F0011C08A3059F08B30DD
:100D000069F48BE480938C008093B70007C02FE9CF
:100D100030E002C029E830E081E003C029E830E09B
:100D200080E030939B0020939A00F8018F3F39F4C4
:100D3000908197FD868190E89093710007C097811C
:100D4000911104C09681981708F4892F809363004D
:100D50000FC08091710087FF0BC0C80197DE8F3FE5
:100D600021F48EE18093640003C08111109263002E
:100D700010929C008091640084FF3FC080916300CA
:100D80008F3FD9F1182F893008F018E0811B80932C
:100D900063008091800098E8892780938000112368
:100DA00001F1E0919A00F0919B008091710086FF23
:100DB0000BC081E890E0DC0124912D933196212F26
:100DC000280F2A13F9CF09C081E890E0DC012191B6
:100DD0002D93212F280F2A13FACFF0939B00E09335
:100DE0009A00612F81E890E003DA1C5F1C3019F053
:100DF0008FEF809363001093640084E190B3947844
:100E000031F48150D9F710929D00109297000F9005
:100E1000DF91CF911F910F91089585B7826085BFB3
:100E20008BB780648BBF8BE480938C008093B7007A
:100E30008AE580938B008093B6000895DC0101C0A1
:100E40006D9341505040E0F70895F894FFCF017D35
:100E500001FF5A0000000000000000000000000038
:100E60000000000000000000000000000000000082
:100E70000000000000000000000000000000000072
:100E80000A74696E79555342626F617264205365CA
:100E90006C62737474657374202D206469652055C9
:100EA0005342205363686E6974747374656C6C6527
:100EB0002066756E6B74696F6E696572740A68740A
:100EC00074703A2F2F6D617472697873746F726DDC
:100ED0002E636F6D2F6176722F74696E79757362F0
:100EE000626F6172642F0A0A4E6163682041626C0E
:100EF0006175662064657320436F756E74646F77E7
:100F00006E7320737461727465742064657220421C
:100F10006F6F746C6F6164657220756E64206461BC
:100F20007320426F617264206B616E6E2070726F0D
:100F30006772616D6D696572742077657264656E44
:100F40002E0A0A0A42656920416E6D65726B756EE4
:100F500067656E2C2046726167656E206F646572EE
:100F60002050726F626C656D656E2077656E64658A
:100F70006E205369652073696368206269747465C3
:100F800020616E205374657068616E2042616572E5
:100F9000776F6C660A7374657068616E406D61741A
:100FA00072697873746F726D2E636F6D2C206D6132
:100FB0007472697873746F726D40676D782E6465B2
:100FC0002C207374657068616E2E62616572776F34
:100FD0006C664074752D696C6D656E61752E646507
:100FE0000A0A5047502D4B65794944093A20307818
:100FF00046423942313244420A46696E6765727030
:1010000072696E74093A20323235322042343145E9
:101010002031324446203431414420343736462092
:10102000374633362030383441203039313120468C
:1010300042394220313244420A00FFFFFFFFFFFFE6
:1018000063C0ADC088C087C086C085C084C083C0A7
:1018100082C081C080C07FC07EC07DC07CC07BC0D4
:101820007AC079C078C07E3FF9F76A39F9F7563542
:10183000F9F74038F9F7EC2DFD2DB7B6B0FCFDCF28
:1018400027BFE895B7B6B0FCFDCF21E1B7B6B6FC2F
:10185000F4CF08955553422076302E39372E312C4F
:10186000206279205374657068616E2042616572F0
:10187000776F6C66000009021200010100803209D6
:10188000040000000000000012011001FF00000829
:10189000C016DC050201010200010E0355005300D1
:1018A00042006100730070001C037700770077002E
:1018B0002E00660069007300630068006C002E0053
:1018C000640065000403090411241FBECFE5D4E0C1
:1018D000DEBFCDBF24B7D4E0CEE539913C3039919D
:1018E00009F03FEF30939B0020939A0010E0A0E6B0
:1018F000B0E0EAEFFFE102C005900D92A636B10715
:10190000D9F720E0A6E6B0E001C01D92AA39B207DF
:10191000E1F783D170C374CFDC018FEF9FEF3327E2
:1019200015C02D912827722F22952727822F2695C3
:101930002695282723952270321777952795822F91
:101940008927972F7695279597278227615048F703
:10195000809590950895E0DF8D939D930895CF93A2
:10196000CFB7CF93DF93C395879BE9F7879B0BC0D6
:10197000879B09C0879B07C0879B05C0879B03C0C7
:10198000879B01C089C06F93C0917D00DD27CC5734
:10199000DF4F2F9365E5879B03C02F916F91E6CFB3
:1019A0000F931F934F9320E040E15F9300B30478BF
:1019B00007FB27F93F9350E03BE039C014784064BF
:1019C0002F77012F5F5F1EC0406810B314782F7708
:1019D00052501FC0406400B32F770478D1F15F5F8D
:1019E00000C023C0406210B32F77147891F15F5F7D
:1019F00000C025C004781027515012F45D5F00002C
:101A0000115027952C3F10B3C8F6147801270150C8
:101A100027952C3FC8F64227499300B30478102736
:101A20004F73115027952C3FA8F64695469510B355
:101A3000147879F00127015027952C3F98F66B5ABE
:101A400060F3315000B3B0F600C010E41ABF0027B5
:101A500017C03B503195C31BD04010E41ABF08811A
:101A6000033CF9F00B34E9F020917B001981110F50
:101A70001213EDCF093651F10D3211F0013E39F755
:101A8000009382003F915F914F911F910F912F9191
:101A90006F91CAB7C6FD67CFDF91CF91CFBFCF910E
:101AA000189520918200222369F310918000112360
:101AB00039F534303AF13093800020937C00109156
:101AC0007D003BE0311B30937D001CC00091800005
:101AD0000130B4F40AE53091610034FD14C0009384
:101AE0006100C0E7D0E013C0052710E000C000008F
:101AF00002BB1AC0052710E0221F1DC010E021C044
:101B00004AE502C032ED432FC4E1D0E032E011B328
:101B10001468979A02B311BB54E820E865E320FFEC
:101B2000052702BB279517951C3FF0F66695B8F779
:101B3000B1F720FF052702BB279517951C3FD0F66C
:101B40002795179517FF052700001C3F02BBB0F62D
:101B500029913A9519F70B7710918100110FC65111
:101B6000D04002BB11F010937B0010E41ABF006854
:101B700011B31B77402F4B7754E05A95F1F702BB16
:101B800011BB42BB7FCFF8948F9A96981BBE15BEAF
:101B9000F1E0FBBF1BBE34C2FC013381932F4481B3
:101BA000842F2281203339F44370E42FF0E0EE5982
:101BB000FF4F80810895283529F431110EC0E1E0EE
:101BC000F0E006C0203571F4311125C0E0E0F0E00E
:101BD00089E080935700849108953830E1F4E3E080
:101BE000F0E0F6CF203221F4FC01EE0FFF1F06C01B
:101BF000283231F4FC01EE0FFF1F319684910895D5
:101C0000203A09F4E3C1203C19F46581E7D103C00F
:101C10002F3F09F411EF80E0089511BA80E482BBF0
:101C200081E08BBF82E08BBF84E031978040E9F791
:101C300080919A00877F21F480919B00882311F086
:101C40008699A1DF1EEF14BE85B7826085BF8BB772
:101C500080648BBF8F9A80E131978040E9F78F983D
:101C6000789400918000035007FD2BC180917D0086
:101C7000CCE0D0E0C81BD109CC57DF4F80917C006D
:101C80008D3209F0B5C0083009F019C183EC80939A
:101C900070008AE58093610010926F004881842F64
:101CA00080763981882399F186E690E090937F00D1
:101CB00080937E00333031F4CE016EDF8093690073
:101CC00024E08CC03530F9F03A30E9F08CEF830F26
:101CD000863098F48A819B8190936E0080936D008A
:101CE000393099F08E8180936C008D818270809361
:101CF0006B0030936A002FEF6BC0323011F41E7FFF
:101D000004C0116002C021E069C020E067C08A8180
:101D100010927900311106C010927A0089E790E0A4
:101D200022E050C0353019F4809381003DC0363038
:101D3000A9F59B81913019F488E898E104C09230AC
:101D400041F486E798E190937F0080937E0022E142
:101D500021C09330F1F4811108C084EC98E1909394
:101D60007F0080937E0024E015C0813041F488EA32
:101D700098E190937F0080937E002CE10BC082302D
:101D800041F48AE998E190937F0080937E002EE0F1
:101D900001C020E080E480936F0018C0383079F0F3
:101DA000393031F48093830089E790E020E00AC065
:101DB00021E03A3009F020E089E790E003C083E8B1
:101DC00090E021E090937F0080937E002F3F31F4DC
:101DD00047FD2E8180E880936F0007C08F818111BD
:101DE00004C08E81821708F4282F2093600067C0FA
:101DF00080916F0087FF63C080916C00801708F4AA
:101E0000082F801B80936C00DD24D3948111D12C8A
:101E100080916A008730C0F0CC2EEC2EFD2E8E2DE6
:101E20008C19801708F048C0D7016D917D01809111
:101E30006D0090916E009C012F5F3F4F30936E00BC
:101E400020936D00CBD0EBCF80916B00E0916D00C3
:101E5000F0916E00DE0100FD0395025048F1F8316B
:101E600038F522D0F8940D901D9021E017D02E2F38
:101E70002E5F2F7331F0DD2079F0882369F0003078
:101E800059F423E00BD010D025E008D00DD007B6D0
:101E900006FE02C021E102D03296DFCFF89427BFC0
:101EA000E89511247894089507B600FCFDCF0895B5
:101EB000F0936E00E0936D00D110109260001092CC
:101EC00080008091610084FF6BC0809160008F3F33
:101ED00009F466C0082F893008F008E0801B809361
:101EE00060008091700098E889278093700000233B
:101EF00009F44AC080916F0087FF28C080916C0070
:101F0000801708F4082F801B80936C00D0906A0023
:101F1000C1E7D0E081E790E02C2F281B2017A0F527
:101F2000E0906D00F0906E00B6E0BD1518F4C701AA
:101F30004DD002C0F701849188832196FFEFEF1AFC
:101F4000FF0AF0926E00E0926D00E4CFE0917E0017
:101F5000F0917F0086FF0BC081E790E0DC012491C7
:101F60002D933196202F280F2A13F9CF09C081E72E
:101F700090E0DC0121912D93202F280F2A13FACF16
:101F8000F0937F00E0937E00602F81E790E0E3DC38
:101F90000C5F0C3019F08FEF8093600000936100AC
:101FA00084E190B3947831F48150D9F71092810094
:101FB00010927B00103118F08699105104C0123035
:101FC00010F0869B125011114CCE3BCEE199FECF02
:101FD0009FBB8EBBE09A99278DB30895262FE19978
:101FE000FECF9FBB8EBB2DBB0FB6F894E29AE19A51
:101FF0000FBE01960895F894FFCFFF5A1E93070075
:00000001FF
